:100000000C94B5000C94D2000C94D2000C94D20045
:100010000C94D2000C94D2000C94D2000C94D20018
:100020000C94D2000C94D2000C94D2000C94500486
:100030000C94D2000C94D2000C94D2000C94D200F8
:100040000C94D2000C94D2000C94D2000C94D200E8
:100050000C94D2000C94D2000C94D2000C94D200D8
:100060000C94D2000C94D2006E616E00696E660032
:1000700000407A10F35A00A0724E18090010A5D45F
:10008000E80000E87648170000E40B54020000CABC
:100090009A3B000000E1F505000080969800000002
:1000A00040420F000000A086010000001027000061
:1000B0000000E803000000006400000000000A00E7
:1000C000000000000100000000002C76D888DC67EA
:1000D0004F0823DFC1DFAE59E1B1B796E5E3E45342
:1000E000C63AE651997696E8E6C28426EB898C9B5F
:1000F00062ED407C6FFCEFBC9C9F40F2BAA56FA5FF
:10010000F490055A2AF75C936B6CF9676DC11BFC80
:10011000E0E40D47FEF520E6B500D0ED902E03009B
:10012000943577050080841E080000204E0A0000E8
:1001300000C80C333333330F986E12831141EF8DA7
:100140002114893BE65516CFFEE6DB18D1844B38E7
:100150001BF77C1D901DA4BBE424203284725E2218
:100160008100C9F124ECA1E53D2711241FBECFEF8A
:10017000D8E0DEBFCDBF11E0A0E0B1E0E8EBFAE1EE
:1001800002C005900D92AA3FB107D9F722E0AAEF6D
:10019000B1E001C01D92AB35B207E1F70E94A504A2
:1001A0000C945A0D0C94000084EA8093BC0080915A
:1001B000BC008823E4F78091B900887F883051F033
:1001C0008091B900887F803141F08091B900887FAB
:1001D00090E0089580E090E0089580E090E0089538
:1001E00084E98093BC0008958093BB0084E88093E9
:1001F000BC008091BC008823E4F78091B900887F1F
:10020000883151F08091B900887F803441F080912D
:10021000B900887F90E0089580E090E0089580E044
:1002200090E008958093BB0084E88093BC008091A7
:10023000BC008823E4F78091B900887F883229F0D8
:100240008091B900887F90E0089580E090E0089563
:10025000882381F084EC8093BC008091BC008823CB
:10026000E4F78091B900887F8035A1F08091B900D2
:10027000887F089584E88093BC008091BC00882327
:10028000E4F78091B900887F883521F08091B9002A
:10029000887F08958091BB00089597B1906397B9C6
:1002A000662321F098B1906398B903C098B19F7C00
:1002B00098B997B19F7C97B9813041F018F082309E
:1002C00049F0089588E48093B800089588E1809308
:1002D000B80008958CE08093B8000895EF92FF92E3
:1002E0000F931F93CF93DF93C82F7B01142F022FFF
:1002F0000E94D400009701F58C2F880F0E94F40013
:100300000097D1F4C0E0D0E009C0F701EC0FFD1F69
:1003100080810E941201009779F42196812F90E04C
:10032000C817D90794F3011105C00E94F00080E0BE
:1003300090E002C080E090E0DF91CF911F910F919B
:10034000FF90EF900895CF92DF92FF920F931F934B
:10035000CF93DF93C82F8B01F42E0E94D4009C0111
:10036000009739F58C2F90E0880F991F81600E94CB
:10037000F4000097F9F4C0E0D0E009C06801CC0EA9
:10038000DD1E81E00E942801F601808321968F2DD9
:1003900090E00197C817D9078CF3EC01C00FD11F6B
:1003A00080E00E94280188830E94F00080E090E0B5
:1003B00001C0932FDF91CF911F910F91FF90DF909C
:1003C000CF900895CF93C82F873069F420915902B8
:1003D00030915A0247E050E061E070E08EE091E039
:1003E0000E94600C0BC08A3019F48DE00E94E2017B
:1003F0008091C00085FFFCCFC093C60080E090E0F4
:10040000CF9108951F93CF93DF93EC019091C0009B
:100410009923E4F79091C00094FDDCC08091C00066
:1004200083FDDBC01091C6001D3009F41AE01A30BC
:10043000B9F4E0910102F09102021083BE01812F14
:100440000E94E201E0910102F0910202118283E038
:1004500092E09093020280930102812F90E0BFC04E
:10046000193009F410E280EE810F8F3510F0103A48
:10047000C0F0E0910102F091020222E0E235F207C1
:1004800029F4BE0187E00E94E2010BC0CF01019672
:1004900090930202809301021083BE01812F0E947B
:1004A000E201153109F449C028F4133041F1183044
:1004B00039F08DC0173109F449C01F3709F087C0E2
:1004C00080910102909102028350924009F008F459
:1004D0007EC0BE0188E00E94E201BE0180E20E946F
:1004E000E201BE0188E00E94E20180910102909148
:1004F00002020197909302028093010268C083E098
:1005000092E090930202809301028FEF9FEF67C009
:10051000BE0188E00E94E201BE0180E20E94E20189
:10052000BE0188E00E94E2018091010290910202E6
:1005300001979093020280930102809101029091B1
:1005400002028350924009F018F741C0E091010285
:10055000F091020231978081803259F5BE0188E026
:100560000E94E201BE0180E20E94E201BE0188E039
:100570000E94E20180910102909102020197909302
:1005800002028093010223C0BE0188E00E94E201C2
:10059000BE0180E20E94E201BE0188E00E94E20109
:1005A0008091010290910202019790930202809340
:1005B0000102809101029091020222E083309207B1
:1005C00031F028F0FC01319780818032E9F6812FEB
:1005D00090E005C08EEF9FEF02C08FEF9FEFDF919D
:1005E000CF911F910895E5E5F2E020E031E03183FD
:1005F0002083338322830E9418069B01AC0160E0B4
:1006000074E284E799E40E94770520E030E040E856
:100610005FE30E940A050E9413070E94E905709398
:10062000C5006093C400E1ECF0E0808188618083C4
:10063000E2ECF0E080818660808383E092E090933A
:10064000020280930102089585E291E09F938F93C7
:100650000E94940C0F900F900895E1E8F0E08081E3
:1006600088608083AFE6B0E08C9182608C9389EFE4
:1006700090E09093890080938800808183608083DC
:100680000895009769F09F938F938CE291E09F9378
:100690008F930E94940C0F900F900F900F90FFCFAC
:1006A0000895CF93DF9300D0CDB7DEB78BE6898373
:1006B0001A8220E042E0BE016F5F7F4F88E60E9411
:1006C0006E010E9441030F900F90DF91CF9108952A
:1006D0000F931F93CF93DF9300D000D000D0CDB7FE
:1006E000DEB78C018BE3898321E041E0BE016F5FBF
:1006F0007F4F88E60E946E010E94410346E0BE01E2
:100700006F5F7F4F88E60E94A3010E9441036981C9
:1007100070E0762F66278A81682B072E000C880BE5
:10072000990B0E941A0620E030E040E858E30E944E
:10073000A606F80160837183828393836B8170E0E6
:10074000762F66278C81682B072E000C880B990B5F
:100750000E941A0620E030E040E858E30E94A60616
:10076000F80164837583868397836D8170E0762FAB
:1007700066278E81682B072E000C880B990B0E9430
:100780001A0620E030E040E858E30E94A606F8018F
:10079000608771878287938726960FB6F894DEBFAD
:1007A0000FBECDBFDF91CF911F910F910895CF93D1
:1007B000DF93EC010E94680323EC35EF4CE151E438
:1007C000688179818A819B810E94A60668837983EA
:1007D0008A839B8323EC35EF4CE151E46C817D816E
:1007E0008E819F810E94A6066C837D838E839F836A
:1007F00023EC35EF4CE151E4688579858A859B854A
:100800000E94A606688779878A879B87DF91CF91A8
:100810000895FF920F931F93CF93DF93182F092F03
:10082000F8946091FD017091FE018091FF0190911B
:100830000002F090FC012091FB017894C9E82C9F04
:10084000C12D1124C295C695C770D22F3CE3C39F1A
:10085000D019112428EE33E040E050E00E94DD0A78
:100860009F938F937F936F931F92FF921F92DF93BB
:100870001F92CF938DE491E09F938F930F931F93DB
:100880000E94DA0C8DB79EB70E960FB6F8949EBFF5
:100890000FBE8DBFDF91CF911F910F91FF900895F3
:1008A0001F920F920FB60F9211242F938F939F9345
:1008B000AF93BF938091FD019091FE01A091FF0144
:1008C000B09100020196A11DB11D8093FD0190938E
:1008D000FE01A093FF01B09300028091FD01909171
:1008E000FE01A091FF01B0910002883E9340A10556
:1008F000B105F0F01092FD011092FE011092FF017F
:10090000109200028091FC018F5F8093FC01809126
:10091000FC018C3368F01092FC018091FB018F5F29
:100920008093FB018091FB018C3310F01092FB014E
:1009300081E08093FA01BF91AF919F918F912F91A8
:100940000F900FBE0F901F901895CF93DF93CDB7E8
:10095000DEB7A0970FB6F894DEBF0FBECDBF60E93B
:1009600070ED83E090E00E94F3020E94240382E68F
:1009700091E00E94AA0C61E082E00E944D010E9479
:1009800051030E942D03789487E991E00E94AA0CFC
:100990008091FA018823E1F31092FA01CE010196C9
:1009A0000E94D70389819A812B813C813F932F93A9
:1009B0009F938F938CED91E09F938F930E94940C63
:1009C0008D819E812F8138853F932F939F938F93A5
:1009D00086EE91E09F938F930E94940C89859A856F
:1009E0002B853C853F932F939F938F9380EF91E0CE
:1009F0009F938F930E94940CCE010D960E94090440
:100A0000CE010D960E94AA0C0FB6F894DEBF0FBE61
:100A1000CDBFBECF5058BB27AA270E9422050C94F9
:100A20006C060E945E0638F00E94650620F039F4DC
:100A30009F3F19F426F40C945B060EF4E095E7FB57
:100A40000C945506E92F0E947D0658F3BA176207E9
:100A500073078407950720F079F4A6F50C949F0698
:100A60000EF4E0950B2EBA2FA02D0B01B9019001C9
:100A70000C01CA01A0011124FF27591B99F0593F0D
:100A800050F4503E68F11A16F040A22F232F342F55
:100A90004427585FF3CF469537952795A795F040A3
:100AA0005395C9F77EF41F16BA0B620B730B840BB8
:100AB000BAF09150A1F0FF0FBB1F661F771F881F70
:100AC000C2F70EC0BA0F621F731F841F48F48795C8
:100AD00077956795B795F7959E3F08F0B0CF9395BA
:100AE000880F08F09927EE0F9795879508950E9433
:100AF0008B050C946C060E94650658F00E945E06F9
:100B000040F029F45F3F29F00C94550651110C94E4
:100B1000A0060C945B060E947D0668F39923B1F34E
:100B2000552391F3951B550BBB27AA276217730713
:100B3000840738F09F5F5F4F220F331F441FAA1FA7
:100B4000A9F335D00E2E3AF0E0E832D09150504063
:100B5000E695001CCAF72BD0FE2F29D0660F771F11
:100B6000881FBB1F261737074807AB07B0E809F0F7
:100B7000BB0B802DBF01FF2793585F4F3AF09E3F7C
:100B8000510578F00C9455060C94A0065F3FE4F3F1
:100B9000983ED4F3869577956795B795F7959F5FBF
:100BA000C9F7880F911D9695879597F90895E1E00B
:100BB000660F771F881FBB1F621773078407BA076A
:100BC00020F0621B730B840BBA0BEE1F88F7E095C5
:100BD00008950E94850688F09F5798F0B92F9927AD
:100BE000B751B0F0E1F0660F771F881F991F1AF018
:100BF000BA95C9F714C0B13091F00E949F06B1E0D8
:100C000008950C949F06672F782F8827B85F39F0D6
:100C1000B93FCCF3869577956795B395D9F73EF4B0
:100C200090958095709561957F4F8F4F9F4F089558
:100C3000E89409C097FB3EF4909580957095619576
:100C40007F4F8F4F9F4F9923A9F0F92F96E9BB272C
:100C50009395F695879577956795B795F111F8CFA8
:100C6000FAF4BB0F11F460FF1BC06F5F7F4F8F4F13
:100C70009F4F16C0882311F096E911C0772321F009
:100C80009EE8872F762F05C0662371F096E8862FA1
:100C900070E060E02AF09A95660F771F881FDAF7F8
:100CA000880F9695879597F9089597F99F6780E83B
:100CB00070E060E008959FEF80EC089500240A94AE
:100CC0001616170618060906089500240A94121627
:100CD0001306140605060895092E0394000C11F45A
:100CE000882352F0BB0F40F4BF2B11F460FF04C007
:100CF0006F5F7F4F8F4F9F4F089557FD9058440F60
:100D0000551F59F05F3F71F04795880F97FB991F6A
:100D100061F09F3F79F08795089512161306140627
:100D2000551FF2CF4695F1DF08C0161617061806B4
:100D3000991FF1CF86957105610508940895E8948F
:100D4000BB2766277727CB0197F908950E94B9063C
:100D50000C946C060E945E0638F00E94650620F036
:100D6000952311F00C9455060C945B0611240C94F9
:100D7000A0060E947D0670F3959FC1F3950F50E089
:100D8000551F629FF001729FBB27F00DB11D639F3D
:100D9000AA27F00DB11DAA1F649F6627B00DA11DE3
:100DA000661F829F2227B00DA11D621F739FB00D89
:100DB000A11D621F839FA00D611D221F749F3327F9
:100DC000A00D611D231F849F600D211D822F762F92
:100DD0006A2F11249F5750409AF0F1F088234AF06F
:100DE000EE0FFF1FBB1F661F771F881F91505040DB
:100DF000A9F79E3F510580F00C9455060C94A0066F
:100E00005F3FE4F3983ED4F3869577956795B79561
:100E1000F795E7959F5FC1F7FE2B880F911D96957B
:100E2000879597F908950E948506E8F09E37E8F0C7
:100E30009639B8F49E3848F4672F782F8827985F42
:100E4000F9CF86957795679593959539D0F3B62F19
:100E5000B1706B0F711D811D20F487957795679593
:100E600093950C9437070C9452070C94A006882392
:100E700071F4772321F09850872B762F07C06623D3
:100E800011F499270DC09051862B70E060E02AF094
:100E90009A95660F771F881FDAF7880F96958795C2
:100EA00097F908959F3F31F0915020F487957795F9
:100EB0006795B795880F911D9695879597F9089531
:100EC000A0E1B0E0E6E6F7E00C94FF0A7C011B012C
:100ED0006A01FC0117821682838181FF44C39E014F
:100EE0002F5F3F4F3901F7019381F10193FD859108
:100EF00093FF81911F01882309F431C3853239F4AE
:100F000093FD859193FF81911F01853239F4B701DB
:100F100090E00E94240C56016501E5CF10E0512CB1
:100F2000912CFFE1F915D8F08B3279F038F480324A
:100F300079F08332A1F4F92DF0612EC08D3261F089
:100F4000803369F4292D21602DC0392D3260932E14
:100F5000892D8460982E2AC0E92DE86015C097FC81
:100F60002DC020ED280F2A3088F496FE06C03AE006
:100F7000139F200D1124122F19C08AE0589E200DB6
:100F80001124522EE92DE0629E2E10C08E3231F4D3
:100F900096FCE5C2F92DF0649F2E08C08C3621F432
:100FA000292D2068922E02C0883641F4F10193FD6C
:100FB000859193FF81911F018111B3CF9BEB980F16
:100FC000933020F4992D9061805E07C09BE9980FC3
:100FD000933008F066C1992D9F7E96FF16E09F73AF
:100FE000992E853619F49064992E08C0863621F41E
:100FF000392F3068932E02C01111115097FE07C08F
:101000001C3350F444244394410E27E00BC01830A5
:1010100038F027E017E005C027E09CE3492E02C026
:10102000212F412C560184E0A80EB11CF6016081ED
:10103000718182819381042DA3010E94360B6C0182
:10104000F981FC87F0FF02C0F3FF06C091FC06C0E7
:1010500092FE06C000E205C00DE203C00BE201C033
:1010600000E08C858C7019F001115AC29BC297FE6A
:1010700010C04C0CFC85F4FF04C08A81813309F454
:101080004A94141474F528E0241578F588E0482E65
:101090002CC096FC2AC0812F90E08C159D059CF0F9
:1010A0003CEFC3163FEFD30674F0892D8068982E6D
:1010B0000AC0E2E0F0E0EC0FFD1FE10FF11D8081BE
:1010C000803319F411501111F4CF97FE0EC044244F
:1010D0004394410E812F90E0C816D9062CF41C19B8
:1010E00004C04424439401C010E097FE06C01C14C1
:1010F0001D0434F4C601019605C085E090E002C0ED
:1011000081E090E001110196112331F0212F30E0B0
:101110002F5F3F4F820F931F252D30E082179307DB
:1011200014F4581A01C0512C892D897049F45520A6
:1011300039F0B70180E290E00E94240C5A94F7CF76
:10114000002329F0B701802F90E00E94240C93FC2B
:1011500009C0552039F0B70180E390E00E94240CCB
:101160005A94F7CF97FE4CC04601D7FE02C0812C9F
:10117000912CC60188199909F301E80FF91FFE8720
:10118000ED87960124193109388B2F87012F10E044
:101190001195019511093FEF8316930629F4B701C4
:1011A0008EE290E00E94240CC814D9044CF08F8584
:1011B00098898815990524F4ED85FE85818101C003
:1011C00080E3F1E08F1A91082D853E852F5F3F4F18
:1011D0003E872D87801691062CF0B70190E00E9483
:1011E000240CD9CFC814D90441F49A81963320F441
:1011F000953319F43C8534FF81E3B70190E04EC08C
:101200008A81813319F09C859F7E9C87B70190E08D
:101210000E94240C111105C094FC18C085E690E0D2
:1012200017C0B7018EE290E00E94240C1E5F82E09E
:1012300001E0080FF301E80FF11D8081B70190E094
:101240000E94240C802F0113F3CFE6CF85E490E0B9
:10125000B7010E94240CD7FC06C0C114D10441F48C
:10126000EC85E4FF05C0D194C194D1088DE201C0A2
:101270008BE2B70190E00E94240C80E32AE0C216C2
:10128000D1042CF08F5FFAE0CF1AD108F7CFB70165
:1012900090E00E94240CB701C601C0960E94240C65
:1012A00054C1833631F0833779F0833509F056C065
:1012B00020C0560132E0A30EB11CF6018081898363
:1012C00001E010E0630112C05601F2E0AF0EB11C64
:1012D000F601C080D18096FE03C0612F70E002C08D
:1012E0006FEF7FEFC6010E94190C8C01F92DFF777B
:1012F00014C0560122E0A20EB11CF601C080D180BC
:1013000096FE03C0612F70E002C06FEF7FEFC60151
:101310000E940E0C8C01F92DF0689F2EF3FD1AC06F
:10132000852D90E008171907A8F4B70180E290E036
:101330000E94240C5A94F4CFF60197FC859197FEF5
:1013400081916F01B70190E00E94240C51105A94D2
:10135000015011090115110579F7F7C0843611F014
:10136000893661F5560197FE09C024E0A20EB11C32
:10137000F60160817181828193810AC0F2E0AF0E33
:10138000B11CF60160817181072E000C880B990B4E
:10139000F92DFF769F2E97FF09C090958095709547
:1013A00061957F4F8F4F9F4FF0689F2E2AE030E06E
:1013B000A3010E94FC0CC82EC6183FC0092D85371A
:1013C00021F40F7E2AE030E01DC0097F8F3691F0B6
:1013D00018F4883559F0C3C0803719F0883711F0F8
:1013E000BEC0006104FF09C0046007C094FE08C0CD
:1013F000066006C028E030E005C020E130E002C011
:1014000020E132E0560107FF09C084E0A80EB11CBC
:10141000F601608171818281938108C0F2E0AF0E94
:10142000B11CF6016081718180E090E0A3010E940F
:10143000FC0CC82EC6180F77902E96FE0BC0092DF7
:101440000E7FC11650F494FE0AC092FC08C0092D0C
:101450000E7E05C0DC2C092D03C0DC2C01C0D12E72
:1014600004FF0DC0FE01EC0DF11D8081803311F4ED
:10147000097E09C002FF06C0D394D39404C0802F14
:10148000867809F0D39403FD11C000FF06C01C2D1F
:10149000D51480F4150D1D190DC0D51458F4B701DD
:1014A00080E290E00E94240CD394F7CFD51410F47E
:1014B0005D1801C0512C04FF10C0B70180E390E01B
:1014C0000E94240C02FF17C001FD03C088E790E0D2
:1014D00002C088E590E0B7010CC0802F867859F0F3
:1014E00001FF02C08BE201C080E207FD8DE2B7017F
:1014F00090E00E94240CC11638F4B70180E390E01C
:101500000E94240C1150F7CFCA94F301EC0DF11D89
:101510008081B70190E00E94240CC110F5CF15C066
:10152000F4E0F51560F584E0581A93FE1FC0011130
:1015300027C02C8523FF2AC008E610E0392D307122
:10154000932EF8018491811124C0552009F4E4CC34
:10155000B70180E290E00E94240C5A94F6CFF70184
:101560008681978126C08FEF9FEF23C0B70180E26D
:1015700090E00E94240C5A945110F8CFD8CF512CEF
:10158000B701802F90E00E94240CD3CF0CE610E02E
:10159000D5CF91108052B70190E00E94240C0F5FCC
:1015A0001F4FCFCF23E0251510F483E0BDCF512C82
:1015B000C0CF6096E2E10C941B0BA1E21A2EAA1B8D
:1015C000BB1BFD010DC0AA1FBB1FEE1FFF1FA217F3
:1015D000B307E407F50720F0A21BB30BE40BF50BF0
:1015E000661F771F881F991F1A9469F76095709579
:1015F000809590959B01AC01BD01CF0108952F927C
:101600003F924F925F926F927F928F929F92AF9292
:10161000BF92CF92DF92EF92FF920F931F93CF93DF
:10162000DF93CDB7DEB7CA1BDB0B0FB6F894DEBF76
:101630000FBECDBF09942A88398848885F846E849C
:101640007D848C849B84AA84B984C884DF80EE80E6
:10165000FD800C811B81AA81B981CE0FD11D0FB6EF
:10166000F894DEBF0FBECDBFED010895283008F01D
:1016700027E03327DA01990F311D87FD916000962D
:101680006105710539F432602E5F3D9330E32A9590
:10169000E1F708959F3F30F080387105610509F04A
:1016A0003C5F3C5F3D93913008F08068911DDF9373
:1016B000CF931F930F93FF92EF92192F987F9695D8
:1016C000E92F96959695E90FFF27E653FF4F992747
:1016D0003327EE24FF24A701E7010590089407941F
:1016E00028F4360FE71EF81E491F511D660F771F9D
:1016F000881F991F0694A1F70590079428F4E70E18
:10170000F81E491F561FC11D770F881F991F661F9E
:101710000694A1F70590079428F4F80E491F561F68
:10172000C71FD11D880F991F661F771F0694A1F749
:101730000590079420F4490F561FC71FD81F990F13
:10174000661F771F881F0694A9F78491109517705C
:1017500041F0D695C79557954795F794E7941A9514
:10176000C1F7E0E7F0E06894159015913591659127
:10177000959105907FE27395E118F10A430B560BA2
:10178000C90BD009C0F7E10CF11E431F561FC91F3A
:10179000D01D7EF4703311F48A95E6CFE8940150A1
:1017A00030F0080F0AF40027021708F4202F2395C1
:1017B000022F7A3328F079E37D932A95E9F710C058
:1017C0007D932A9589F60694979567953795179591
:1017D0001794E118F10A430B560BC90BD00998F086
:1017E00023957E9173957A3308F070E37C932013F0
:1017F000B8F77E9170617D9330F0839571E37D93AE
:1018000070E32A95E1F71124EF90FF900F911F915B
:10181000CF91DF91992787FD90950895FC01059060
:10182000615070400110D8F7809590958E0F9F1FE2
:101830000895FC016150704001900110D8F7809527
:1018400090958E0F9F1F08950F931F93CF93DF9353
:10185000FB01238121FD03C08FEF9FEF2CC022FFEE
:1018600016C046815781248135814217530744F4BD
:10187000A081B1819D012F5F3F4F318320838C93E5
:10188000268137812F5F3F4F3783268314C08B011A
:10189000EC01FB010084F185E02D0995892BE1F62F
:1018A000D80116968D919C911797019617969C9347
:1018B0008E931697CE01DF91CF911F910F910895CE
:1018C000A0E0B0E0E6E6FCE00C94050B5B014A0109
:1018D0007901D90113962C9121FF1DC0C0E0D0E001
:1018E000C815D905D9F08C016C01CA0CDB1CC801E4
:1018F0000C151D0571F00F5F1F4FD7011896ED9164
:10190000FC911997B701DC018C910995892B79F32A
:1019100005C02196E5CF80E090E001C0CE01CDB7B3
:10192000DEB7ECE00C94210BA0E0B0E0EAE9FCE0CB
:101930000C940F0BAE014B5F5F4FFA0161917191F7
:10194000AF0180915702909158020E946007E2E037
:101950000C942B0B0F931F93CF93DF93E0915702BF
:10196000F0915802238121FF1BC08C01D0E0C0E020
:10197000F80181918F016091570270915802DB014B
:101980001896ED91FC911997882331F00995892BD0
:1019900079F3DFEFCFEFECCF8AE00995892B19F0CF
:1019A0008FEF9FEF02C08D2F9C2FDF91CF911F9162
:1019B0000F910895AEE0B0E0E0EEFCE00C940D0B6A
:1019C0000D891E8986E08C831A8309838FEF9FE738
:1019D0009E838D83AE01475E5F4F6F89788DCE0108
:1019E00001960E946007EF81F885E00FF11F1082D9
:1019F0002E96E4E00C94290BFA01AA27283051F125
:101A0000203181F1E8946F936E7F6E5F7F4F8F4F2F
:101A10009F4FAF4FB1E03ED0B4E03CD0670F781F8E
:101A2000891F9A1FA11D680F791F8A1F911DA11D73
:101A30006A0F711D811D911DA11D20D009F46894AC
:101A40003F912AE0269F11243019305D3193DEF654
:101A5000CF010895462F4770405D4193B3E00FD00A
:101A6000C9F7F6CF462F4F70405D4A3318F0495DF5
:101A700031FD4052419302D0A9F7EACFB4E0A695D8
:101A80009795879577956795BA95C9F700976105FA
:101A9000710508959B01AC010A2E06945795479550
:101AA00037952795BA95C9F7620F731F841F951F45
:081AB000A01D0895F894FFCF7A
:101AB8000000000300000000E201020200002A7298
:101AC800696E672A0A001B5B33333B316D3E3E204B
:101AD8001B5B306D001B631B5B334A001B5B3331A0
:101AE8003B316D4572726F722120436F6465203DF2
:101AF800203078253032580A1B5B306D0025303293
:101B0800752E253032752E253032752E2530336CE2
:101B180075001B5B33333B316D4D5055204163637A
:101B2800656C65726F6D65746572204D656173755E
:101B380072656D656E7420537461727465642E2EBF
:101B48002E0A1B5B306D001B5B33323B316D1B5B18
:101B58003134432D2D2D2D2D2D2D2D2D2D2D2D2D8C
:101B68002D2D204170706C69636174696F6E20520D
:101B7800756E6E696E67202D2D2D2D2D2D2D2D2D19
:101B88002D2D2D2D2D2D0A1B5B306D004158202544
:101B9800352E3266200041592025352E3266200028
:0A1BA800415A2025352E3266200038
:00000001FF
